:020000040000FA
:100000000C945C010C948D010C948D010C948D0169
:100010000C948D010C948D010C948D010C948D0128
:100020000C948D010C9412110C9412110C94121159
:100030000C948D010C948D010C948D010C948D0108
:100040000C948D010C94E4100C948D010C948D0192
:100050000C948D010C948D010C948D010C94101056
:100060000C948D010C948D010C948D010C948D01D8
:100070000C948D010C948D010C948D010C948D01C8
:100080000C94B6100C948D010C948D010C948D0180
:100090000C94DA0F0C94B00F0C948D010C948E110B
:1000A0000C948D010C948D010C9488100C948D018E
:1000B0000C948D010C948D010C948D010C945A10AC
:1000C0000C948D010C948D010C948D010C948D0178
:1000D0000C948D010C948D010C948D010C948D0168
:1000E0000C948D010C94B6030C94E3030C94ED0373
:1000F0000C94CB060C94E3180C94B9060C941E04D3
:100100000C94D5030C9496020C94E7030C94DC0633
:100110000C9487020C94B2120C94AA020C9459020B
:100120000C94F0020C94CB030C94EC030C94D903C4
:100130000C94BD050C94C1030C94F1030C94DF03E3
:100140000C9440080C9458020C94D1030C94A6060D
:100150000C94C7030C94B8020C94BE030C944F0487
:100160000C94BC050C945A020C94A4050C94AC039A
:100170000C9497060C94C0060C94BA030C941906C0
:100180000C943D030C94DD060C948F040C94B20384
:100190000C94310600002100240027002A002D00C5
:1001A0003000330001010000040107010A010000D2
:1001B0000A0B02090C0D0E080703040100000000E1
:1001C000000000000000000000000000000000002F
:1001D00000000000000000000000121110000000EC
:1001E000000000000000000000000000000000000F
:1001F00000000000000020002300260029002C0041
:100200002F00320000010000030106010901000077
:100210002200250028002B002E00310034000201AE
:100220000000050108010B01050505050705080883
:100230000808020202020A0A080804040404010170
:100240000101010101010303030303030303040785
:1002500007070C0C0C0C0C0C0C0C0202020206061C
:100260000606060606060B0B0B0B0B0B0B0B01020F
:1002700010202008081020401020408002010201B8
:100280000804020101020408102040808040201070
:1002900008040201800402018040201008040201C9
:1002A0000804020101020408102040800102040831
:1002B00010204080B212E31811241FBECFEFD1E20C
:1002C000DEBFCDBF00E00CBF13E0A0E0B2E0E8EB82
:1002D000F8E300E00BBF02C007900D92A434B10711
:1002E000D9F726E0A4E4B3E001C01D92AF31B20714
:1002F000E1F711E0CBE5D1E000E006C0219701096C
:10030000802FFE010E94111ACA35D10780E008072C
:10031000A9F70E9403140C944A1C0C940000E0916D
:100320001806E03388F54091190628E830E0241BD0
:10033000310947FD3395220F331F220F331F8217D8
:10034000930784F040911A0628E532E0241B310916
:1003500047FD3395220F331F220F331F8217930758
:100360000CF49C0122503109220F331F4FB7F8942F
:100370008E2F90E0FC01EE0FFF1FE80FF91FEF51E9
:10038000FB4F328321834FBF089596E0899FD001B0
:100390001124A657BA4F90967C936E935F9791E085
:1003A00091969C939197E091F705F091F8059091C3
:1003B000F605992339F0309751F0811108C08091EA
:1003C000A6051994309719F05C968C91FACF089590
:1003D000CF92DF92EF92FF920F931F9396E0899F47
:1003E000F0011124E657FA4F11A2278D30A12130D8
:1003F000310551F178F02230310509F451C0233034
:10040000310509F452C01F910F91FF90EF90DF90DA
:10041000CF9008956623B9F361E070E00E94C501B2
:100420002FB7F8948091340490913504A09136044C
:10043000B09137042FBF8093E2059093E305A0931A
:10044000E405B093E505DFCF9FB7F894C09034047E
:10045000D0903504E0903604F09037049FBF0091AF
:10046000E2051091E3052091E4053091E505C01AFD
:10047000D10AE20AF30A0091F4051091F50530E083
:1004800020E00C151D052E053F0550F462E070E0DC
:100490001F910F91FF90EF90DF90CF900C94C501CA
:1004A0006111B1CF63E070E0F3CF70E060E0F0CFB6
:1004B00008950895AF92BF92CF92DF92EF92FF928C
:1004C0000F931F93CF93DF936C017B018B01040F7C
:1004D000151FEB015E01AE18BF08C017D10759F018
:1004E0006991D601ED91FC910190F081E02DC6015A
:1004F0001995892B79F7C501DF91CF911F910F9144
:10050000FF90EF90DF90CF90BF90AF900895FC01E7
:10051000538D448D252F30E0842F90E0821B930B68
:10052000541710F0CF96089501970895FC01918D0E
:10053000828D981761F0A28DAE0FBF2FB11D5D9611
:100540008C91928D9F5F9F73928F90E008958FEFB3
:100550009FEF0895FC01918D828D981731F0828D67
:10056000E80FF11D858D90E008958FEF9FEF0895BE
:10057000FC01918D228D892F90E0805C9F4F821B22
:1005800091098F739927089588E394E00E94B80237
:1005900021E0892B09F420E0822F0895FC01A48D2D
:1005A000A80FB92FB11DA35ABF4F2C91848D90E095
:1005B00001968F739927848FA689B7892C93A08978
:1005C000B1898C91837080648C93938D848D981302
:1005D00006C00288F389E02D80818F7D8083089595
:1005E000EF92FF920F931F93CF93DF93EC0181E083
:1005F000888F9B8D8C8D98131AC0E889F98980812A
:1006000085FF15C09FB7F894EE89FF896083E8895C
:10061000F98980818370806480839FBF81E090E04E
:10062000DF91CF911F910F91FF90EF900895F62EDB
:100630000B8D10E00F5F1F4F0F731127E02E8C8D75
:100640008E110CC00FB607FCFACFE889F9898081BA
:1006500085FFF5CFCE010E94CE02F1CFEB8DEC0FDE
:10066000FD2FF11DE35AFF4FF0829FB7F8940B8FD7
:10067000EA89FB8980818062CFCFCF93DF93EC0141
:10068000888D8823B9F0AA89BB89E889F9898C917A
:1006900085FD03C0808186FD0DC00FB607FCF7CF36
:1006A0008C9185FFF2CF808185FFEDCFCE010E9436
:1006B000CE02E9CFDF91CF91089580E090E0892BC1
:1006C00049F080E090E0892B29F00E940000811120
:1006D0000E94000080E090E0892B29F00E94C40273
:1006E00081110E94000080E090E0892B49F080E0B9
:1006F00090E0892B29F00E94000081110E940000E7
:1007000080E090E0892B49F080E090E0892B29F08F
:100710000E94000081110C940000089581508231E4
:1007200008F05AC0E82FF0E08827E656FC4F8F4FBC
:100730000C94111ABA03BE03AC03B203B603EC0364
:10074000C103C703CB03D103D503D903DF03E303FD
:10075000EC03E703ED03F103809180008F77809332
:1007600080000895809180008F7DF9CF8091800076
:10077000877FF5CF84B58F7784BD089584B58F7D4D
:10078000FBCF8091B0008F778093B0000895809167
:10079000B0008F7DF9CF809190008F77809390008B
:1007A0000895809190008F7DF9CF80919000877F90
:1007B000F5CF8091A0008F778093A000089580915D
:1007C000A0008F7DF9CF8091A000877FF5CF809129
:1007D00020018F77809320010895809120018F7DE3
:1007E000F9CF80912001877FF5CFCF93DF93282F1A
:1007F00030E0F901E255FE4F8491F901E259FD4FD5
:10080000D491F901E85DFD4FC491CC23A1F0811191
:100810000E948E03EC2FF0E0EE0FFF1FEC50FE4F16
:10082000A591B491EC91ED2381E090E009F480E092
:10083000DF91CF91089580E090E0FACF862F0C945D
:10084000F5031F93CF93DF93282F30E0F901E25592
:10085000FE4F8491F901E259FD4FD491F901E85D11
:10086000FD4FC491CC23A9F0162F81110E948E0355
:10087000EC2FF0E0EE0FFF1FE25FFD4FA591B4916A
:100880008FB7F894EC91111108C0D095DE23DC935A
:100890008FBFDF91CF911F910895DE2BF8CF862F68
:1008A000642F0C942104CF93DF9390E0FC01E25974
:1008B000FD4F2491885D9D4FFC0184918823C9F0F0
:1008C00090E0880F991FFC01EC56FE4FA591B49162
:1008D000FC01E25FFD4FC591D49161110DC09FB73E
:1008E000F8948C91209582238C93888128232883E7
:1008F0009FBFDF91CF910895623051F49FB7F89474
:100900003C91822F809583238C93E8812E2BEFCF0F
:100910008FB7F894EC912E2B2C938FBFEACF862FB4
:10092000642F0C9453043FB7F8948091190490916C
:100930001A04A0911B04B0911C0426B5A89B05C005
:100940002F3F19F00196A11DB11D3FBFBA2FA92F4E
:10095000982F8827BC01CD01620F711D811D911D4B
:1009600042E0660F771F881F991F4A95D1F70895B7
:100970008F929F92AF92BF92CF92DF92EF92FF92AF
:100980004B015C010E9493046B017C010E94930463
:100990006C197D098E099F09683E73408105910598
:1009A000A8F321E0821A9108A108B10888EEC80EC8
:1009B00083E0D81EE11CF11C81149104A104B10450
:1009C00029F7FF90EF90DF90CF90BF90AF909F906E
:1009D0008F900895AF92BF92CF92DF92EF92FF92E5
:1009E0000F931F93CF93DF936B017A01EC01CC5EE1
:1009F000DB4F28813CE0389F8001399F100D112486
:100A0000A0907105B12C27FF1FC0FB01118210823D
:100A100088818F5F888388819801280F311D87FD29
:100A20003A95F6012A153B051CF488818C30C4F1F7
:100A300080819181049680349C4908F473C0F6014A
:100A400080819181049670C088819801280F311DA2
:100A500087FD3A952A153B05DCF68881A801480FE9
:100A6000511D87FD5A95FA01EE0FFF1FE40FF51F88
:100A7000EF51FB4F808186FFCBCF8881F801E80FD3
:100A8000F11D87FDFA95CF01EE0FFF1FE80FF91F4B
:100A9000EF51FB4F808160E08F730E942104B8CF3B
:100AA000808191812881A801420F511D27FD5A950F
:100AB0009A01FA01EE0FFF1FE20FF31FEF51FB4FF8
:100AC00021813281820F931FF70191838083888176
:100AD0009801280F311D87FD3A95F901EE0FFF1F90
:100AE000E20FF31FEF51FB4F808186FF22C0888108
:100AF000080F111D87FD1A95F801EE0FFF1FE00F7B
:100B0000F11FEF51FB4F808161E08F73DF91CF9137
:100B10001F910F91FF90EF90DF90CF90BF90AF901B
:100B20000C94210480E49CE9F701918380838FEF8A
:100B30008883DF91CF911F910F91FF90EF90DF900D
:100B4000CF90BF90AF90089520911F043091200462
:100B50002817390771F490911D0480911E0498178D
:100B600041F0E0911D04F0E0EC52FC4F808190E0F8
:100B700008958FEF9FEF08950895EF92FF920F93DE
:100B80001F93CF93DF93DC015C96ED90FC905D9713
:100B9000E114F10479F481E090E013969C938E9334
:100BA000129790E080E0DF91CF911F910F91FF901D
:100BB000EF9008955196ED91FC91529750968C913B
:100BC0005097982F90950FB75E962C915E97122FA5
:100BD000127021FD6095F8942081112319F1282BC2
:100BE0002083E7012197F1F728E0462F50E030817C
:100BF00060FF1AC0382B3083E7012197F1F7BA0163
:100C000075956795215089F7112381F0808189239B
:100C100080830FBF5C968D919C910197F1F781E0E5
:100C200090E0C1CF2923DCCF3923E5CF9081892BF8
:100C3000EFCF20911F04309120042817390771F459
:100C400080911E0420911D0490E0805C9F4F821BC8
:100C5000910960E470E00E94FD19089590E080E041
:100C6000089520911F043091200428173907B9F402
:100C700090911D0480911E04981789F0E0911D0445
:100C8000F0E0EC52FC4F808120911D0430E02F5F9A
:100C90003F4F2F73332720931D0490E008958FEF6B
:100CA0009FEF089520918A03260F3327331F2132A7
:100CB0003105ECF42091AE03FC0190E080E024309B
:100CC00069F082E00895A0918A032191AC01465910
:100CD0005C4FA40FB52FB11D2C930196861798F386
:100CE00080918A03680F60938A0380E0089581E011
:100CF00008951092AE0381E08093B0031092AF0389
:100D000061E084E10E94210461E085E10E94210408
:100D1000E9EBF0E080818E7F808380818D7F80830E
:100D200088E48093B80085E48093BC000895E09146
:100D3000280480912704E81730F4F0E0EC5BFC4FC6
:100D4000808190E008958FEF9FEF0895909128049F
:100D5000809127042FEF3FEF981748F4E92FF0E038
:100D6000EC5BFC4F208130E09F5F90932804C90129
:100D700008958091270490912804891B990B089568
:100D8000CF93DF93CB01EA01642F0E945206CE017C
:100D9000DF91CF910895CF93DF931F92CDB7DEB748
:100DA000698361E0CE0101960E94520681E090E0E5
:100DB0000F90DF91CF910895089590E080E008951D
:100DC000CF93DF93EC0160E08E810E94210461E00B
:100DD0008E810E94210460E08E810E9421048BE8B4
:100DE00091E00197F1F7DF91CF910895CF92DF92D3
:100DF000EF92FF920F931F93CF93DF936C017C01CF
:100E000087E0E80EF11CD0E0C0E0062F10E0B8014A
:100E10000C2E02C0759567950A94E2F76170F70190
:100E200081917F010E9421042196C430D10579F778
:100E3000C601DF91CF911F910F91FF90EF90DF904E
:100E4000CF900C94E006CF92DF92EF92FF920F9337
:100E50001F93CF93DF93EC01F62E642F8C810E94B9
:100E600021048D818F3F19F060E00E9421040F2D35
:100E700010E08F8584FF25C06E0187E0C80ED11C6D
:100E8000F12CE12CB8010E2C02C0759567950A94DF
:100E9000E2F76170F60181916F010E942104FFEF7A
:100EA000EF1AFF0A88E0E816F10461F7CE01DF913E
:100EB000CF911F910F91FF90EF90DF90CF900C9406
:100EC000E006B80184E0759567958A95E1F7CE0153
:100ED0000E94F6066F2DCE01DF91CF911F910F91E9
:100EE000FF90EF90DF90CF900C94F60640E0682FD3
:100EF00082E795E00C94230781E00E9476078BE35C
:100F00009FE10197F1F70895CF93DF93813029F0A6
:100F1000909181059860909381058093850510924A
:100F2000860580E48093870580E18093880580E5CD
:100F30008093890561E0809176050E945304809139
:100F400077058F3F19F061E00E94530461E08091C2
:100F500078050E945304C2E7D5E09E012257354030
:100F60008091810584FD0BC084E090E021962817D4
:100F7000390744F461E08E810E945304EECF88E08B
:100F800090E0F4CF8BE39DE00197F1F760E0809172
:100F900076050E94210460E0809178050E9421047A
:100FA000809177058F3F19F060E00E9421048091C5
:100FB000810584FD34C063E082E795E00E94F60677
:100FC000CBE4D6E4CE010197F1F763E082E795E048
:100FD0000E94F6062197F1F763E082E795E00E9410
:100FE000F60683E592E00197F1F762E082E795E08B
:100FF0000E94F6068091810580620E94760784E057
:10100000809382058CE00E9476070E947C0782E034
:101010008093830586E0DF91CF910C947607806200
:101020000E9476078BE496E40197F1F780918105A1
:1010300080620E94760783E592E00197F1F7809144
:10104000810580620E947607D5CFCF93DF93EB01B5
:1010500090918505891710F08FEF890FE82FF0E048
:10106000EE58FA4F848980680E9476074C815D8132
:101070006881798182E795E0DF91CF910C945A02E3
:1010800041E00E94230781E090E00895FC01019077
:101090000020E9F73197AF01481B590BBC0189EFDC
:1010A00095E00C945A028F929F92AF92BF920F9349
:1010B0001F93CF93DF93CDB7DEB7A1970FB6F89408
:1010C000DEBF0FBECDBF19A2423008F44AE08E0148
:1010D0000F5D1F4F842E912CB12CA12CA5019401E2
:1010E0000E94C019E62FB901CA01EA30F4F4E05DAC
:1010F000D801EE938D01232B242B252B79F790E03B
:1011000080E0109719F0CD010E944608A1960FB615
:10111000F894DEBF0FBECDBFDF91CF911F910F912D
:10112000BF90AF909F908F900895E95CE1CFCF92F0
:10113000DF92EF92FF92CF93DF936B017C016DE220
:1011400089EF95E00E94BD05EC0166277727CB016A
:101150006C197D098E099F094AE00E9453088C0F83
:101160009D1FDF91CF91FF90EF90DF90CF9008957A
:10117000CF93DF930E944608EC018AE692E00E943A
:1011800046088C0F9D1FDF91CF9108950F931F93F9
:10119000CF93DF93EC0188819981009759F02A81E0
:1011A0003B812617370730F081E0DF91CF911F9107
:1011B0000F9108958B016F5F7F4F0E94591B00971D
:1011C00059F0998388831B830A832C813D81232BCB
:1011D00059F7FC011082E8CF80E0E7CFEF92FF9251
:1011E0000F931F93CF93DF936115710541F480E056
:1011F000DF91CF911F910F91FF90EF9008954115CE
:101200005105B1F07B01EC010C811D81040F151F0C
:10121000B8010E94C608882351F3288139818C8146
:101220009D81B701820F931F0E94431C1D830C8375
:1012300081E0DECFCF93DF93EC0188819981009725
:1012400011F00E94D01A198218821D821C821B8202
:101250001A82DF91CF910895CF93DF93EC0150E094
:1012600040E06CE672E00E94EE08811103C0CE01FE
:101270000E941A09CE01DF91CF910895CF93DF9399
:10128000EC01FB0144815581608171810E94EE086F
:10129000811103C0CE010E941A09CE01DF91CF91C6
:1012A0000895EF92FF920F931F93CF93DF93EC017A
:1012B0007B018A01BA010E94C60881110BC0CE01D0
:1012C0000E941A09CE01DF91CF911F910F91FF90DB
:1012D000EF9008951D830C83B701888199810E9446
:1012E000431CF0CFFB0101900020E9F73197AF01DB
:1012F000461B570B0C945109AF92BF92CF92DF92CD
:10130000EF92FF920F931F93CF93DF93EC017B013A
:101310005A01CC24C394D12C452B29F4D12CC12CB7
:10132000AA24A394B12C198218821B821A821D82CE
:101330001C8250E040E06CE672E0CE010E94510950
:10134000D70114960D911C91C016D106E8F4A01691
:10135000B10608F48501D701ED91FC911197E00FDA
:10136000F11FB08010826D917C916C0D7D1DCE01BE
:1013700061157105A9F00E947209F70180819181C0
:10138000080F191FD801BC92CE01DF91CF911F9198
:101390000F91FF90EF90DF90CF90BF90AF900895A6
:1013A0000E941A09EACF0F931F93CF93DF93CDB713
:1013B000DEB762970FB6F894DEBF0FBECDBF8C01CB
:1013C000CB01F801118210821382128215821482DD
:1013D0004AE0BE016F5F7F4F0E942619BE016F5F1A
:1013E0007F4FC8010E94720962960FB6F894DEBF63
:1013F0000FBECDBFDF91CF911F910F9108950F9335
:101400001F93CF93DF93CDB7DEB7A2970FB6F894B3
:10141000DEBF0FBECDBF8C01CB01BA01F801118236
:10142000108213821282158214822AE0AE014F5F6D
:101430005F4F0E943119BE016F5F7F4FC8010E944C
:101440007209A2960FB6F894DEBF0FBECDBFDF9132
:10145000CF911F910F910895CF93DF93EC01FB0182
:101460008617970749F0608171816115710541F018
:10147000448155810E945109CE01DF91CF91089599
:101480000E941A09F9CFFC01118210821382128284
:10149000158214820C942C0AFC01808191810097A2
:1014A00011F00C94D01A0895CF93DF9385ED8093BB
:1014B000BC008091660390916703A0916803B0918E
:1014C00069030796A11DB11D23E0B695A7959795D1
:1014D00087952A95D1F72091BC0024FD03C0109276
:1014E000AE0336C040916603509167036091680374
:1014F00070916903452B462B472B69F30097A10593
:10150000B10541F025E32A95F1F700000197A10903
:10151000B109E1CF8091650391E090936403882342
:10152000B9F0C091B800D091BA008091BC008A7B1C
:101530008093BC0060E084E10E94210460E085E1CA
:101540000E9421040E947906D093BA00C093B8008B
:10155000DF91CF910895CF92DF92EF92FF920F9398
:101560001F93CF93DF93CDB7DEB768970FB6F8948C
:10157000DEBF0FBECDBF0E947C07809133048A324C
:1015800091F48DE692E00E94B80810923204109215
:10159000310410922F0410922E0410922D041092F8
:1015A0002C041092290480913304813391F48BE749
:1015B00092E00E94B80820912C0430912D0421154E
:1015C000310509F064C181E090E090932D0480938F
:1015D0002C0480913304843391F484E892E00E94D7
:1015E000B80820912C0430912D042115310509F003
:1015F000AFC184E090E090932D0480932C048091FF
:101600003304873391F48DE892E00E94B80820916A
:101610002C0430912D042115310509F0FAC187E021
:1016200090E090932D0480932C04809133048033B8
:1016300009F06AC086E992E00E94B80880912C0403
:1016400090912D04009709F45FC06C01092E000CE5
:10165000EE08FF084AE0489F9001499F300D112491
:1016600030932D0420932C04B701A601CE010196DE
:101670000E94FF090D811E81CE0101960E944C0A35
:101680000330110508F440C0B701A601CE0143960E
:101690000E94FF0970E060E0CE010D960E94D30920
:1016A0004F89588DBE016D5E7F4FCE0101960E941D
:1016B0007C09BE016F5F7F4FCE0107960E94430AEF
:1016C000BE01635F7F4FCE0107960E943E09BC01B9
:1016D000CE0143960E942C0ACE0107960E944C0A26
:1016E000CE0101960E944C0ACE010D960E944C0A32
:1016F0008B899C890E94FF1870932D0460932C04A1
:10170000CE0143960E944C0A80913304823391F4B7
:101710008FE992E00E94B80820912C0430912D04AA
:101720002115310509F0D6C182E090E090932D0497
:1017300080932C0480913304853391F488EA92E0FD
:101740000E94B80820912C0430912D0421153105F8
:1017500009F021C285E090E090932D0480932C0441
:1017600080913304883391F481EB92E00E94B808B1
:1017700020912C0430912D042115310509F06CC203
:1017800088E090E090932D0480932C0480913304A2
:10179000833279F48AEB92E00E94B80880912C049D
:1017A00090912D04909332048093310481E08093D2
:1017B000290480913304833391F487EC92E00E94F2
:1017C000B80820912C0430912D042115310509F021
:1017D000A4C283E090E090932D0480932C04809128
:1017E0003304863391F480ED92E00E94B808209192
:1017F0002C0430912D042115310509F0EFC286E04B
:1018000090E090932D0480932C04809133048933CD
:1018100091F489ED92E00E94B80820912C04309157
:101820002D042115310509F03AC389E090E0909329
:101830002D0480932C04809133048434C9F4809166
:101840002C0490912D0490932F0480932E041092D9
:101850002D0410922C0482EE92E00E94B8088FE2D0
:10186000809330046AE070E080E090E00E94B80469
:1018700068960FB6F894DEBF0FBECDBFDF91CF9153
:101880001F910F91FF90EF90DF90CF900895690125
:10189000032E000CEE08FF084AE0429FC001439F60
:1018A000900D1124019690932D0480932C04B70180
:1018B000A601CE0101960E94FF090D811E81CE0175
:1018C00001960E944C0A0330110508F482CEB7013C
:1018D000A601CE0143960E94FF0961E070E0CE01AF
:1018E0000D960E94D3094F89588DBE016D5E7F4FC2
:1018F000CE0101960E947C09BE016F5F7F4FCE0131
:1019000007960E94430ABE01635F7F4FCE01079690
:101910000E943E09BC01CE0143960E942C0ACE01D2
:1019200007960E944C0ACE0101960E944C0ACE01F5
:101930000D960E944C0A8B899C890E94FF18709317
:101940002D0460932C04CE0143960E944C0A41CE94
:101950006901032E000CEE08FF084AE0429FC00117
:10196000439F900D1124049690932D0480932C0492
:10197000B701A601CE0101960E94FF090D811E81CB
:10198000CE0101960E944C0A0330110508F437CEAF
:10199000B701A601CE0143960E94FF0964E070E002
:1019A000CE010D960E94D3094F89588DBE016D5E00
:1019B0007F4FCE0101960E947C09BE016F5F7F4F71
:1019C000CE0107960E94430ABE01635F7F4FCE019E
:1019D00007960E943E09BC01CE0143960E942C0A44
:1019E000CE0107960E944C0ACE0101960E944C0A35
:1019F000CE010D960E944C0A8B899C890E94FF188B
:101A000070932D0460932C04CE0143960E944C0ADF
:101A1000F6CD6901032E000CEE08FF084AE0429F54
:101A2000C001439F900D1124079690932D0480933D
:101A30002C04B701A601CE0101960E94FF090D8179
:101A40001E81CE0101960E944C0A0330110508F454
:101A5000ECCDB701A601CE0143960E94FF0967E0D5
:101A600070E0CE010D960E94D3094F89588DBE01BA
:101A70006D5E7F4FCE0101960E947C09BE016F5FB3
:101A80007F4FCE0107960E94430ABE01635F7F4FDE
:101A9000CE0107960E943E09BC01CE0143960E94EA
:101AA0002C0ACE0107960E944C0ACE0101960E9494
:101AB0004C0ACE010D960E944C0A8B899C890E948B
:101AC000FF1870932D0460932C04CE0143960E945E
:101AD0004C0AABCD6901032E000CEE08FF084AE06A
:101AE000429FC001439F900D1124029690932D04B4
:101AF00080932C04B701A601CE0101960E94FF0934
:101B00000D811E81CE0101960E944C0A0330110501
:101B100008F410CEB701A601CE0143960E94FF093A
:101B200062E070E0CE010D960E94D3094F89588D76
:101B3000BE016D5E7F4FCE0101960E947C09BE0101
:101B40006F5F7F4FCE0107960E94430ABE01635F1D
:101B50007F4FCE0107960E943E09BC01CE014396FD
:101B60000E942C0ACE0107960E944C0ACE010196D3
:101B70000E944C0ACE010D960E944C0A8B899C89CA
:101B80000E94FF1870932D0460932C04CE0143969D
:101B90000E944C0ACFCD6901032E000CEE08FF080D
:101BA0004AE0429FC001439F900D112405969093F7
:101BB0002D0480932C04B701A601CE0101960E944A
:101BC000FF090D811E81CE0101960E944C0A03304F
:101BD000110508F4C5CDB701A601CE0143960E94B8
:101BE000FF0965E070E0CE010D960E94D3094F8990
:101BF000588DBE016D5E7F4FCE0101960E947C091B
:101C0000BE016F5F7F4FCE0107960E94430ABE015F
:101C1000635F7F4FCE0107960E943E09BC01CE0153
:101C200043960E942C0ACE0107960E944C0ACE01D0
:101C300001960E944C0ACE010D960E944C0A8B8997
:101C40009C890E94FF1870932D0460932C04CE0190
:101C500043960E944C0A84CD6901032E000CEE08C5
:101C6000FF084AE0429FC001439F900D112408964F
:101C700090932D0480932C04B701A601CE01019608
:101C80000E94FF090D811E81CE0101960E944C0A1F
:101C90000330110508F47ACDB701A601CE014396B1
:101CA0000E94FF0968E070E0CE010D960E94D30902
:101CB0004F89588DBE016D5E7F4FCE0101960E9407
:101CC0007C09BE016F5F7F4FCE0107960E94430AD9
:101CD000BE01635F7F4FCE0107960E943E09BC01A3
:101CE000CE0143960E942C0ACE0107960E944C0A10
:101CF000CE0101960E944C0ACE010D960E944C0A1C
:101D00008B899C890E94FF1870932D0460932C048A
:101D1000CE0143960E944C0A39CD6901032E000C76
:101D2000EE08FF084AE0429FC001439F900D112436
:101D3000039690932D0480932C04B701A601CE0145
:101D400001960E94FF090D811E81CE0101960E941D
:101D50004C0A0330110508F442CDB701A601CE01AB
:101D600043960E94FF0963E070E0CE010D960E9449
:101D7000D3094F89588DBE016D5E7F4FCE0101960C
:101D80000E947C09BE016F5F7F4FCE0107960E94C3
:101D9000430ABE01635F7F4FCE0107960E943E0952
:101DA000BC01CE0143960E942C0ACE0107960E94E8
:101DB0004C0ACE0101960E944C0ACE010D960E945B
:101DC0004C0A8B899C890E94FF1870932D046093A4
:101DD0002C04CE0143960E944C0A01CD6901032ECA
:101DE000000CEE08FF084AE0429FC001439F900D9F
:101DF0001124069690932D0480932C04B701A6011C
:101E0000CE0101960E94FF090D811E81CE0101962F
:101E10000E944C0A0330110508F4F7CCB701A60163
:101E2000CE0143960E94FF0966E070E0CE010D9658
:101E30000E94D3094F89588DBE016D5E7F4FCE0140
:101E400001960E947C09BE016F5F7F4FCE0107960D
:101E50000E94430ABE01635F7F4FCE0107960E9436
:101E60003E09BC01CE0143960E942C0ACE01079682
:101E70000E944C0ACE0101960E944C0ACE010D969A
:101E80000E944C0A8B899C890E94FF1870932D0434
:101E900060932C04CE0143960E944C0AB6CC690193
:101EA000032E000CEE08FF084AE0429FC001439F4A
:101EB000900D1124099690932D0480932C04B70162
:101EC000A601CE0101960E94FF090D811E81CE015F
:101ED00001960E944C0A0330110508F4ACCCB701FE
:101EE000A601CE0143960E94FF0969E070E0CE0191
:101EF0000D960E94D3094F89588DBE016D5E7F4FAC
:101F0000CE0101960E947C09BE016F5F7F4FCE011A
:101F100007960E94430ABE01635F7F4FCE0107967A
:101F20000E943E09BC01CE0143960E942C0ACE01BC
:101F300007960E944C0ACE0101960E944C0ACE01DF
:101F40000D960E944C0A8B899C890E94FF18709301
:101F50002D0460932C04CE0143960E944C0A6BCC56
:101F60001F920F920FB60F9211240BB60F922F9360
:101F70003F934F935F936F937F938F939F93AF9311
:101F8000BF93EF93FF9388E394E00E94CE02FF910A
:101F9000EF91BF91AF919F918F917F916F915F91E1
:101FA0004F913F912F910F900BBE0F900FBE0F904E
:101FB0001F9018951F920F920FB60F9211240BB617
:101FC0000F922F938F939F93EF93FF93E091480489
:101FD000F09149048081E0914E04F0914F0482FD1C
:101FE0001DC09081809151048F5F8F7320915204A6
:101FF000821741F0E0915104F0E0E85CFB4F958FCF
:1020000080935104FF91EF919F918F912F910F90A9
:102010000BBE0F900FBE0F901F9018958081F2CFCE
:102020001F920F920FB60F9211242F933F938F930D
:102030009F93AF93BF938091340490913504A09106
:102040003604B09137043091180423E0230F2D3764
:1020500058F50196A11DB11D2093180480933404F6
:1020600090933504A0933604B093370480911904FB
:1020700090911A04A0911B04B0911C040196A11D1B
:10208000B11D8093190490931A04A0931B04B0937C
:102090001C04BF91AF919F918F913F912F910F9011
:1020A0000FBE0F901F90189526E8230F0296A11DD2
:1020B000B11DD2CF1F920F920FB60F9211240BB603
:1020C0000F922F933F934F935F936F937F938F93D1
:1020D0009F93AF93BF93EF93FF9348E251E064E285
:1020E00071E090E080E00E94EA04FF91EF91BF91DF
:1020F000AF919F918F917F916F915F914F913F91A0
:102100002F910F900BBE0F900FBE0F901F90189540
:102110001F920F920FB60F9211240BB60F922F93AE
:102120003F934F935F936F937F938F939F93AF935F
:10213000BF93EF93FF9348EA50E064EA70E083E0D6
:1021400090E00E94EA04FF91EF91BF91AF919F91BF
:102150008F917F916F915F914F913F912F910F9050
:102160000BBE0F900FBE0F901F9018951F920F92ED
:102170000FB60F9211240BB60F922F933F934F93EC
:102180005F936F937F938F939F93AF93BF93EF93DF
:10219000FF9348E950E064E970E082E090E00E943B
:1021A000EA04FF91EF91BF91AF919F918F917F9141
:1021B0006F915F914F913F912F910F900BBE0F90B8
:1021C0000FBE0F901F9018951F920F920FB60F928F
:1021D00011240BB60F922F933F934F935F936F93FE
:1021E0007F938F939F93AF93BF93EF93FF9348E8B1
:1021F00050E064E870E081E090E00E94EA04FF9122
:10220000EF91BF91AF919F918F917F916F915F916E
:102210004F913F912F910F900BBE0F900FBE0F90DB
:102220001F9018951F920F920FB60F9211240BB6A4
:102230000F922F933F934F935F936F937F938F935F
:102240009F93AF93BF93EF93FF93E0911F04F0919F
:102250002004309749F0A685B7858585968D91FF36
:1022600016C09C918923B1F4FF91EF91BF91AF917A
:102270009F918F917F916F915F914F913F912F919E
:102280000F900BBE0F900FBE0F901F9018959C9152
:10229000892351F7A389B4899C91858980958923E5
:1022A0008C93868997890197F1F7608D718DA6854A
:1022B000B785558538E020E0CB010197F1F7822FF3
:1022C00090E095958795282F4C91452309F020683B
:1022D000315091F7868D81FD209580911E0490E00C
:1022E00001968F73992730911D04381799F0A091AA
:1022F0001E04B0E0AC52BC4F2C9380931E04828D20
:10230000938D0197F1F7A389B4898C919589892BD5
:102310008C93AACF868D8160868FF1CF1F920F920A
:102320000FB60F9211240BB60F922F933F934F933A
:102330005F936F937F938F939F93AF93BF93EF932D
:10234000FF938091B900887F803609F44DC008F072
:1023500040C0883209F4A9C028F5803109F49DC035
:10236000C8F4882309F4FBC0883009F496C0FF91B3
:10237000EF91BF91AF919F918F917F916F915F91FD
:102380004F913F912F910F900BBE0F900FBE0F906A
:102390001F901895883109F488C0803241F78093E6
:1023A000AD0314C0803409F49DC040F48033B9F308
:1023B0008833E9F68093AD0385ECB0C0803509F42D
:1023C00085C0883509F496C0883489F60E94540A7D
:1023D000CECF883909F48CC038F5883729F050F40D
:1023E000883611F0803719F683E08093AE0310929F
:1023F000AC0357C0883809F47BC0803919F08038A5
:1024000009F0B5CF8091AC03803208F071C0E09143
:10241000AC0381E08E0F8093AC038091BB00F0E0B1
:10242000E457FC4F80833DC0803B39F0E0F4803AB4
:1024300009F479C0883A09F09ACF84E08093AE031A
:1024400010928B0310928A03E0912304F0912404EC
:10245000199580918A0381110FC081E080938A03CE
:1024600010926A0309C0803C09F4A6CF883C09F4A5
:10247000A3CF883B09F07BCFE0918B0381E08E0FE7
:1024800080938B03F0E0E659FC4F80818093BB0082
:1024900090918B0380918A0329C08091D30380930C
:1024A000BB0085EC8093BC0062CF9091D2038091F9
:1024B000D103981758F5E091D20381E08E0F8093F5
:1024C000D203F0E0EF54FC4F8081E9CFE091D203DA
:1024D00081E08E0F8093D2038091BB00F0E0EF5437
:1024E000FC4F80839091D2038091D1039817C8F25A
:1024F00085E8D8CFE091D20381E08E0F8093D2039C
:102500008091BB00F0E0EF54FC4F80838091B003DA
:1025100081115CCF81E08093AF0384EA8093BC009B
:102520001092AE0324CF85EC8093BC001092AE03D2
:102530008091AC03803230F4E091AC03F0E0E457DA
:10254000FC4F10826091AC0370E0E0912104F091A7
:1025500022048CE893E019951092AC0308CF1092F6
:10256000AD0334CF10923B0410923A0488EE93E00E
:10257000A0E0B0E080933C0490933D04A0933E041F
:10258000B0933F0422E232E03093390420933804C0
:102590002DEC30E030934504209344042CEC30E0E3
:1025A000309347042093460428EC30E030934904EC
:1025B0002093480429EC30E030934B0420934A04E4
:1025C0002AEC30E030934D0420934C042EEC30E0A4
:1025D00030934F0420934E041092510410925204F1
:1025E00010925304109254041092D8041092D704FD
:1025F0008093D9049093DA04A093DB04B093DC04B5
:1026000084E392E09093D6048093D5048091710581
:10261000803308F0F4C091E0980F90937105809397
:10262000180690E0FC01EE0FFF1FE80FF91FEF51B5
:10263000FB4F88EB9BE0928381831092FC05109204
:10264000FB0588EE93E0A0E0B0E08093FD05909359
:10265000FE05A093FF05B09300068CE592E09093F1
:10266000FA058093F9051092100610920F06109249
:102670001206109211061092140610921306109270
:10268000160610921506609117066E7F6D7F609397
:1026900017066695617081E0682783E10E94210436
:1026A00061E083E10E945304E1E8F2E0E491E09309
:1026B0000906EBE3F2E0E491F0E0EE0FFF1FE25FCA
:1026C000FD4F8591949190930B0680930A0660E0EC
:1026D00082E10E9453048091170681FD04C061E0ED
:1026E00082E10E94210482E180930506E0E8F2E0A5
:1026F000E491E0930606EAE3F2E0E491F0E0EE0F05
:10270000FF1FEC50FE4F85919491909308068093A3
:10271000070610928C051092900510928F0510926A
:10272000910582E592E090938B0580938A05E6EA15
:10273000F5E01082148213821582369685E0E23E1F
:10274000F807B9F784E092E09093ED058093EC05EB
:1027500080E092E09093EF058093EE0584E0809313
:10276000F0058093F10588E092E09093EB0580936B
:10277000EA058AE090E09093F3058093F20584EFF8
:1027800091E09093F5058093F4051092F80510926E
:10279000F7051092E6051092E7051092E8051092F1
:1027A000E9051092F605109275051092740586E4FD
:1027B00092E0909373058093720583E2809376058F
:1027C0008FEF8093770582E28093780581E2809392
:1027D000790580E280937A058FE180937B058EE115
:1027E00080937C0510927D0510927E0510927F05E6
:1027F000109280051092810581E00C9484078FEF80
:10280000809318061ACFCF93DF93CDB7DEB76897C2
:102810000FB6F894DEBF0FBECDBF789484B582604A
:1028200084BD84B5816084BD85B5826085BD85B574
:10283000816085BD80916E00816080936E001092F2
:10284000810080918100826080938100809181006D
:1028500081608093810080918000816080938000FE
:102860008091B10084608093B1008091B00081605C
:102870008093B0008091910082608093910080915C
:10288000910081608093910080919000816080939D
:1028900090008091A10082608093A1008091A100AE
:1028A00081608093A1008091A00081608093A0004E
:1028B00080912101826080932101809121018160BA
:1028C000809321018091200181608093200180917B
:1028D0007A00846080937A0080917A00826080938D
:1028E0007A0080917A00816080937A0080917A00EA
:1028F000806880937A001092C1008CE692E0809309
:10290000300480911806803308F052C061E082E004
:102910000E94530480911806282F30E0F901EE0F31
:10292000FF1FE20FF31FEF51FB4F9081907C9260ED
:1029300090831092190610921A062CE0622F0E94C2
:10294000F119829FB001112430E020E0AB01420F69
:10295000531FFA01EE0FFF1FE40FF51FEF51FB4F5E
:10296000908196FD17C02F5F3F4F2C30310571F7D6
:10297000813009F0A8C11092800082E0809381002C
:102980001092850010928400B19A80916F0082604D
:1029900080936F00E09118068E2F90E0FC01EE0FFF
:1029A000FF1FE80FF91FEF51FB4F80818064808388
:1029B0002091190688E890E0821B910927FD9395E4
:1029C000880F991F880F991F0E948F01109214067B
:1029D0001092130610921206109211061092100611
:1029E00010920F068DE991E09093160680931506DC
:1029F0008091050696EF980F943048F02EEC280F42
:102A0000243028F022EC280F283008F061C02DEB8C
:102A100030E03093100620930F062BE931E030931D
:102A20001206209311062CE231E030931406209315
:102A30001306943050F02EEC280F243030F022ECA6
:102A4000280FF0E0E0E0283010F4E8E6F0E0208124
:102A5000943028F032EC380F383008F460C131E09F
:102A6000232B943048F09EEC980F943028F08E532E
:102A7000F0E0E0E0883010F4E8E6F0E02083209118
:102A8000050636EF320F343008F44BC18EEC820F5E
:102A9000843008F446C182EC820F883008F044C1CB
:102AA0008DE690E090930D0680930C06343008F08C
:102AB0003EC12650330B81E001C0880F2A95EAF70A
:102AC00080930E0680911506909116060197F1F7F6
:102AD0008091130690911406892B49F1E0911F040F
:102AE000F091200455E0E93FF50709F1309739F0FE
:102AF000A389B4899C918589809589238C93809141
:102B000017068E7F8093170610921E0410921D04E4
:102B100089EF95E09093200480931F04E0910C06C8
:102B2000F0910D06808190910E06892B8083E091B3
:102B30004804F091490482E08083E0914404F091DC
:102B400045041082E0914604F09147048FEC8083A5
:102B500010925004E0914C04F0914D0486E0808383
:102B6000E0914A04F0914B04808180618083E09180
:102B70004A04F0914B04808188608083E0914A048C
:102B8000F0914B04808180688083E0914A04F09149
:102B90004B0480818F7D808310922804109227043B
:102BA00010922604109225040E94790688E592E08E
:102BB000909324048093230489E592E09093220467
:102BC000809321048BEE92E00E94B80860E086E3D7
:102BD0000E94530460E080E00E94530460E080E0C3
:102BE0000E94530461E084E20E94530460E085E2A5
:102BF0000E94530484E00E9484071A8219821C8276
:102C00001B821E821D824DE050E060EF72E0CE011B
:102C100001960E945109BE016F5F7F4F81E090E0F5
:102C20000E942508CE0101960E944C0A8EEF92E088
:102C30000E94B8086AE070E080E090E00E94B8046A
:102C40000E947C0736EC232E35E0332E44EB442ED5
:102C5000512C612C712C81E08093F6058FB7F8948C
:102C600040913404509135046091360470913704DA
:102C70008FBF8091E6059091E705A091E805B0919E
:102C8000E905481B590B6A0B7B0B8091F20590916B
:102C9000F305B0E0A0E084179507A607B70708F092
:102CA00030C210E08091F005181708F055C0E0918F
:102CB000EC05F091ED05E10FF11D62E080810E94CD
:102CC00053041F5FEFCF823061F410929000809325
:102CD0009100109295001092940088BB809371002F
:102CE00059CE833069F41092A00082E08093A10055
:102CF0001092A5001092A40089BB809372004ACE66
:102D0000811148CE1092200182E08093210110921F
:102D10002501109224018ABB809373003BCE34E0DE
:102D20009FCE8BE690E0BECE90E080E0BBCE88E008
:102D3000223309F4C5CE84E0233309F4C1CE82E006
:102D4000243309F4BDCE82EC820F883018F42E5360
:102D5000330BB1CE81E0B4CE912C8091F105981661
:102D600008F063C0E92CF12CE091EE05F091EF053D
:102D7000EE0DFF1D61E080810E945304E091EE059D
:102D8000F091EF05EE0DFF1D60E080810E942104AF
:102D900081E090E0A0E0B0E0092C04C0880F991F0A
:102DA000AA1FBB1F0A94D2F75C016C01C094D09497
:102DB000812C8091F005881608F5082D10E0E0912F
:102DC000EC05F091ED05E00FF11F80810E94F50305
:102DD0000C5F1F4F000F111FF801E657FA4F892BA8
:102DE00041F4808191818A299B29918380838394F6
:102DF000E0CF808191818C219D21F7CFE091EE057C
:102E0000F091EF05EE0DFF1D61E080810E9421042D
:102E10008091EE059091EF05E80EF91E60E0F70154
:102E200080810E945304939498CF9AE8E92E95E00C
:102E3000F92E8701F801878D90A1892B31F4148E2A
:102E40008FEF9FEF968F858F11A20A5F1F4F20167D
:102E5000310681F7D12C8091F005D81608F053C0C7
:102E6000C12CAD2CB12CAA0CBB1CF501EE56FA4FAF
:102E70005F012091F105C21608F043C0F5016081A1
:102E800071810C2C02C0769567950A94E2F7D29E68
:102E9000900111242C0D311DEAE8F5E080E0458D0C
:102EA000568D2417350709F48CC18F5F36968A300A
:102EB000B1F760FF24C0EAE8F5E090E080E0448DDF
:102EC000411118C0E091EA05F091EB05E20FF31F04
:102ED000408156E0589FF001599FF00D1124E657AC
:102EE000FA4F448F368F258F10A2178E61E00E9413
:102EF000E80105C0019636968A30910501F7C39422
:102F0000B8CFD394A8CF80E0F70191A19111892F78
:102F1000F6E0EF0EF11C0E151F05B1F79FB7F89400
:102F20004091340450913504609136047091370417
:102F30009FBF4093E6055093E7056093E8057093C3
:102F4000E905882309F4DDC08091AB05882309F4E5
:102F5000D8C08091A9059091AA05019709F0D1C028
:102F60008091A605809333048111D0C085E20E9430
:102F7000F503019709F0CDC084EB80932B0461E049
:102F800084E20E94210464E670E080E090E00E9408
:102F9000B80460E084E20E94210480912E049091A4
:102FA0002F0401978330910558F52091290422239D
:102FB00039F1209130042F3219F5209131043091EC
:102FC0003204FC01E65DFB4F253B31050CF0F5C0FA
:102FD00031E03083855D9B4FFC01208384E293E0E8
:102FE0000E94B80810922D0410922C041092320402
:102FF0001092310410922F0410922E041092290482
:1030000020912B0430E0A8EEB3E00E94E219A30166
:1030100092010E94A119DA01C90188519C4FAF4F5A
:10302000BF4F0E948F016091310470913204CE0134
:1030300007960E94D309F090300460912E0470919D
:103040002F04CE0143960E94D309BE016D5E7F4FCF
:10305000CE010D960E94430ACE010D960E942C09C6
:103060008C01F9821A8241E050E0BE016F5F7F4F10
:103070000E94EE08811103C0C8010E941A09C8010C
:103080000E942C09BE01695F7F4F0E943E09BC016E
:10309000CE0101960E94430ABE016F5F7F4F90E010
:1030A00080E00E942508CE0101960E944C0ACE01C4
:1030B0000D960E944C0ACE0143960E944C0ACE0106
:1030C00007960E944C0A60912C0470912D04CE0149
:1030D00001960E94D309BE016F5F7F4F81E090E0AF
:1030E0000E942508CE0101960E944C0A6AE070E019
:1030F00080E090E00E94B8040E947C070E945D037B
:10310000AACD1092F6051092330430CF0E94AB0A7C
:103110002DCF80912A04811140CF80917B00877F41
:1031200080937B0080E480937C0080917A008064AF
:1031300080937A0080917A0086FDFCCF80917800A0
:1031400000917900102F082F87E093E00E94B808C3
:10315000B801012E000C880B990B17FF24C00E94A8
:1031600097088AE692E00E94460824EB30E0D801F6
:103170000E94191A2FEF33E040E050E00E94A1199D
:1031800069017A018BE193E00E94B808F7FE0FC055
:10319000C701B6010E9497088AE692E00E9446089D
:1031A000C0922B04FACE4AE00E945308DACF4AE0DC
:1031B000C701B6010E945308EFCF108284E393E069
:1031C0000FCF617094CE8CE592E09093FA058093D6
:1031D000F90580911F0490912004895F954071F456
:1031E000E0910C06F0910D06908180910E0680957D
:1031F000892380831092200410921F0408951F9346
:10320000FC0199278827BC01E89411911032E9F359
:10321000193010F01E30C8F31B3251F01D3249F442
:10322000689406C00E944019610F711D811D911D97
:10323000119110531A30B0F33EF49095809570952B
:1032400061957F4F8F4F9F4F1F910895BB274A3045
:1032500031F4992322F4BDE2909581959F4F0C940F
:103260007819BB272A3051F4992342F4BDE2909596
:103270008095709561957F4F8F4F9F4F0C94561995
:10328000592F482F372F262F660F771F881F991F1A
:10329000660F771F881F991F620F731F841F951F6A
:1032A000660F771F881F991F0895BB27FA01A62F65
:1032B0006217710581059105330B30FB66F0AA2773
:1032C000660F771F881F991FAA1FA21710F0A21B55
:1032D00063953850A9F7A05DAA3308F0A95DA193C2
:1032E00036F7B111B1931082CA010C949119BB2722
:1032F000FB015527AA27880F991FAA1FA41710F0B2
:10330000A41B83955051B9F7A05DAA3308F0A95DBD
:10331000A193009779F7B111B1931192CB010C945D
:103320009119DC01FC01672F71917723E1F7329746
:1033300004C07C916D9370836291AE17BF07C8F390
:103340000895052E97FB1EF400940E94B81957FDAE
:1033500007D00E94C01907FC03D04EF40C94B81992
:1033600050954095309521953F4F4F4F5F4F0895B1
:1033700090958095709561957F4F8F4F9F4F0895E1
:10338000A1E21A2EAA1BBB1BFD010DC0AA1FBB1F69
:10339000EE1FFF1FA217B307E407F50720F0A21BDB
:1033A000B30BE40BF50B661F771F881F991F1A9448
:1033B00069F760957095809590959B01AC01BD0172
:1033C000CF010895A29FB001B39FC001A39F700DCC
:1033D000811D1124911DB29F700D811D1124911D1D
:1033E0000895991B79E004C0991F961708F0961B61
:1033F000881F7A95C9F78095089597FB072E16F4D4
:10340000009407D077FD09D00E94201A07FC05D050
:103410003EF4909581959F4F0895709561957F4FEB
:103420000895EE0FFF1F881F8BBF0790F691E02DC8
:1034300019940E94E219B7FF0895821B930B089517
:10344000AA1BBB1B51E107C0AA1FBB1FA617B707CA
:1034500010F0A61BB70B881F991F5A95A9F78095E6
:103460009095BC01CD0108950F931F93CF93DF93E7
:103470008230910510F482E090E0E0911D06F09119
:103480001E0630E020E0B0E0A0E0309799F421156E
:10349000310509F44AC0281B390B24303105D8F511
:1034A0008A819B816115710589F1FB019383828378
:1034B000FE0111C0408151810281138148175907D3
:1034C000E0F04817590799F4109761F012960C93A1
:1034D000129713961C933296CF01DF91CF911F91D3
:1034E0000F91089500931D0610931E06F4CF211529
:1034F000310551F04217530738F0A901DB019A0159
:10350000BD01DF01F801C1CFEF01F9CF90931E0695
:1035100080931D06CDCFFE01E20FF31F819391939F
:103520002250310939832883D7CF20911B0630914F
:103530001C06232B41F420911A0230911B02309378
:103540001C0620931B0620911802309119022115A8
:10355000310541F42DB73EB740911C0250911D0238
:10356000241B350BE0911B06F0911C06E217F307B4
:10357000A0F42E1B3F0B2817390778F0AC014E5FE3
:103580005F4F2417350748F04E0F5F1F50931C06FE
:1035900040931B06819391939FCFF0E0E0E09CCF96
:1035A000CF93DF930097E9F0FC01329713821282E8
:1035B000A0911D06B0911E06ED0130E020E01097AD
:1035C000A1F420813181820F931F20911B0630913D
:1035D0001C062817390709F061C0F0931C06E09318
:1035E0001B06DF91CF910895EA01CE17DF07E8F5BA
:1035F0004A815B819E0141155105B1F7E901FB83C9
:10360000EA8349915991C40FD51FEC17FD0761F466
:10361000808191810296840F951FE90199838883A7
:10362000828193819B838A83F0E0E0E012968D9102
:103630009C9113970097B9F52D913C911197CD016D
:103640000296820F931F20911B0630911C062817AB
:10365000390739F6309751F510921E0610921D0663
:10366000B0931C06A0931B06BCCFD383C2834081BA
:103670005181840F951FC817D90761F44E5F5F4FC2
:1036800088819981480F591F518340838A819B818A
:10369000938382832115310509F0B0CFF0931E0684
:1036A000E0931D069ECFFD01DC01C0CF1382128284
:1036B000D7CF4F925F926F927F928F929F92AF92ED
:1036C000BF92CF92DF92EF92FF920F931F93CF930F
:1036D000DF938C01009799F4CB01DF91CF911F917B
:1036E0000F91FF90EF90DF90CF90BF90AF909F90A1
:1036F0008F907F906F905F904F900C94341AFC01E4
:10370000E60FF71F9C0122503109E217F30708F476
:10371000AEC0D901CD91DC911197C617D70720F122
:10372000C530D10578F0CE0104978617970750F081
:10373000C61BD70B2297C193D1936D937C93CF0176
:103740000E94D01AC801DF91CF911F910F91FF9075
:10375000EF90DF90CF90BF90AF909F908F907F9031
:103760006F905F904F9008955B01AC1ABD0A4C01B9
:103770008C0E9D1EA0911D06B0911E06512C412C51
:10378000F12CE12C109731F580911B0690911C06CD
:103790008815990509F05CC04616570608F058C010
:1037A0008091180290911902009741F48DB79EB74D
:1037B00040911C0250911D02841B950BE817F907DC
:1037C00008F055C0F0931C06E0931B06F9017183C5
:1037D0006083B8CF8D919C91119712966C9012973F
:1037E00013967C901397A815B90559F56C0142E022
:1037F000C40ED11CCA14DB0420F1AC014A195B09C8
:10380000DA011296159780F06282738251834083A9
:10381000D9016D937C93E114F10471F0D7011396F3
:10382000FC93EE9312978ECF22968C0F9D1FF90179
:1038300091838083F301EFCFF0931E06E0931D0682
:1038400081CF4816590608F42C017D01D3019ACF87
:10385000CB010E94341A7C01009749F0AE01B801F7
:103860000E943A1CC8010E94D01A87016BCF10E059
:1038700000E068CFFB01DC0102C001900D924150D5
:103880005040D8F70895FB01DC0101900D92002013
:10389000E1F7089511E0CBE5D1E000E006C0802F0C
:1038A000FE010E94111A2196011DCC35D10780E03E
:1038B0000807A9F7F894FFCF1A1B1C1D1617181933
:1038C0003738394434353643313233422A30234194
:1038D00000001F06800000000000F0025A0287026C
:1038E0003D03B8029602AA0200000000CB06C00603
:1038F000DD06BC05B906A6069706000000004008D4
:103900005A02DD06DC06000000008F044F041E048E
:1039100000000000BD055A02DD06BC05190631068F
:10392000A4050D0A00427574746F6E2043616E63C6
:10393000656C00427574746F6E203100427574744A
:103940006F6E203400427574746F6E2037004275BC
:1039500074746F6E203000427574746F6E20320084
:10396000427574746F6E203500427574746F6E20EA
:103970003800427574746F6E20457175616C004239
:103980007574746F6E203300427574746F6E2036D8
:1039900000427574746F6E203900446576657369F2
:1039A0006F6E007465737400736D6172742066616C
:1039B000726D696E67007374617274207570007245
:1039C0006563696576656420766F6C7461676520F0
:1039D000697300616E676C65206973007365727648
:1039E0006F206973206C6F636B656400736572761A
:0C39F0006F206973206F70656E656400C5
:020000040003F7
:10E000000D9489F10D94B2F10D94B2F10D94B2F129
:10E010000D94B2F10D94B2F10D94B2F10D94B2F1F0
:10E020000D94B2F10D94B2F10D94B2F10D94B2F1E0
:10E030000D94B2F10D94B2F10D94B2F10D94B2F1D0
:10E040000D94B2F10D94B2F10D94B2F10D94B2F1C0
:10E050000D94B2F10D94B2F10D94B2F10D94B2F1B0
:10E060000D94B2F10D94B2F10D94B2F10D94B2F1A0
:10E070000D94B2F10D94B2F10D94B2F10D94B2F190
:10E080000D94B2F10D94B2F10D94B2F10D94B2F180
:10E090000D94B2F10D94B2F10D94B2F10D94B2F170
:10E0A0000D94B2F10D94B2F10D94B2F10D94B2F160
:10E0B0000D94B2F10D94B2F10D94B2F10D94B2F150
:10E0C0000D94B2F10D94B2F10D94B2F10D94B2F140
:10E0D0000D94B2F10D94B2F10D94B2F10D94B2F130
:10E0E0000D94B2F141546D656761323536300041AF
:10E0F000726475696E6F206578706C6F72657220DE
:10E1000073746B3530305632206279204D4C530099
:10E11000426F6F746C6F616465723E004875683F52
:10E1200000436F6D70696C6564206F6E203D200048
:10E130004350552054797065202020203D20005FF9
:10E140005F4156525F415243485F5F3D2000415658
:10E1500052204C696243205665723D20004743437C
:10E160002056657273696F6E203D20004350552024
:10E1700049442020202020203D20004C6F7720663D
:10E18000757365202020203D20004869676820665F
:10E190007573652020203D200045787420667573D6
:10E1A00065202020203D20004C6F636B2066757336
:10E1B000652020203D20004D617220203720323024
:10E1C000313300312E362E3800342E332E350056A2
:10E1D00023202020414444522020206F7020636F70
:10E1E00064652020202020696E73747275637469E1
:10E1F0006F6E2061646472202020496E74657272B3
:10E20000757074006E6F20766563746F7200726A49
:10E210006D702020006A6D70200057686174207056
:10E220006F72743A00506F7274206E6F7420737541
:10E2300070706F72746564004D7573742062652030
:10E2400061206C6574746572002000577269747483
:10E25000696E672045450052656164696E672045B7
:10E26000450045452065727220636E743D00504F35
:10E27000525400303D5A65726F2061646472003FF1
:10E280003D43505520737461747300403D454550C3
:10E29000524F4D207465737400423D426C696E6B41
:10E2A000204C454400453D44756D70204545505215
:10E2B0004F4D00463D44756D7020464C415348001B
:10E2C000483D48656C70004C3D4C69737420492F83
:10E2D0004F20506F72747300513D51756974005234
:10E2E0003D44756D702052414D00563D73686F7707
:10E2F00020696E7465727275707420566563746FF0
:10E30000727300593D506F727420626C696E6B00BD
:10E310002A0011241FBECFEFD1E2DEBFCDBF01E046
:10E320000CBF12E0A0E0B2E0EEE1FDEF03E00BBFB6
:10E3300002C007900D92A030B107D9F712E0A0E01B
:10E34000B2E001C01D92AE30B107E1F70F9460F367
:10E350000D948DFE01E20EBF0FEF0DBF11241FBE05
:10E360000D9460F30D9400F020E030E040ED57E0B4
:10E3700005C0FA013197F1F72F5F3F4F2817390792
:10E38000C0F308959C01260F311DC901A0E0B0E043
:10E390002F5F3F4FABBFFC018791882361F08093D3
:10E3A000C6008091C00086FFFCCF8091C0008064D1
:10E3B0008093C000EACF08958DE08093C6008091DD
:10E3C000C00086FFFCCF8091C00080648093C000B5
:10E3D0008AE08093C6008091C00086FFFCCF8091C8
:10E3E000C00080648093C00008950F94C2F10F9420
:10E3F000DCF10895FC019081992359F09093C600B7
:10E400008091C00086FFFCCF8091C0008064809323
:10E41000C0003196992379F70895282F982F929567
:10E420009F70892F805D8A3308F0895F8093C600D2
:10E430008091C00086FFFCCF8091C00080648093F3
:10E44000C000822F8F70982F905D9A3308F0995FEB
:10E450009093C6008091C00086FFFCCF8091C000E1
:10E4600080648093C00008959C01FB01853691056E
:10E470001CF46330710594F0C90164E670E00F94F8
:10E480002EFE605D7F4F6093C6008091C00086FFC6
:10E49000FCCF8091C00080648093C0002B30310598
:10E4A00014F43297B4F0C90164E670E00F942EFEC4
:10E4B0006AE070E00F942EFE605D7F4F6093C600AF
:10E4C0008091C00086FFFCCF8091C0008064809363
:10E4D000C000C9016AE070E00F942EFEC0968093E0
:10E4E000C6008091C00086FFFCCF8091C000806490
:10E4F0008093C00008951F93182F8EE692EE60E07F
:10E500000F94C2F11093C6008091C00086FFFCCF2B
:10E510008091C00080648093C0000F94DCF11F9153
:10E5200008952F923F924F925F926F927F928F92B7
:10E530009F92AF92BF92CF92DF92EF92FF920F9392
:10E540001F93DF93CF93CDB7DEB762970FB6F894E2
:10E55000DEBF0FBECDBF382E622ECA01DB015C01CB
:10E560006D01772420E2222E2E010894411C511CBB
:10E570008BC081E0A81680E0B80681E0C80680E084
:10E58000D80628F0C601AA27BB270F940DF2BB2797
:10E59000AD2D9C2D8B2D0F940DF28A2D0F940DF225
:10E5A0002092C6008091C00086FFFCCF8091C00001
:10E5B00080648093C0009DE29093C6008091C0006B
:10E5C00086FFFCCF8091C00080648093C0002092C1
:10E5D000C6008091C00086FFFCCF8091C00080649F
:10E5E0008093C00019828601750188249924A1E0D6
:10E5F0003A1651F03A1620F0B2E03B1661F409C029
:10E600000BBFF701779007C0C7010F9477FE782EF4
:10E6100002C0F7017080872D0F940DF22092C60082
:10E620008091C00086FFFCCF8091C0008064809301
:10E63000C000872D8052F401EF70F0708F3520F408
:10E64000E40DF51D708204C0E40DF51D8EE280839B
:10E650000894E11CF11C011D111D0894811C911CE2
:10E6600090E18916910409F0C2CF80E190E0A0E02A
:10E67000B0E0A80EB91ECA1EDB1E198AC2010F9493
:10E68000FAF10F94DCF16A94662009F072CF629679
:10E690000FB6F894DEBF0FBECDBFCF91DF911F91B3
:10E6A0000F91FF90EF90DF90CF90BF90AF909F9031
:10E6B0008F907F906F905F904F903F902F90089534
:10E6C0002F923F924F925F926F927F928F929F9282
:10E6D000AF92BF92CF92DF92EF92FF920F931F9370
:10E6E000DF93CF93CDB7DEB7CD53D1400FB6F894BB
:10E6F000DEBF0FBECDBF01E20EBF0FEF0DBF94B75F
:10E70000F894A89514BE80916000886180936000A1
:10E7100010926000789493FF05C0E0910002F091A0
:10E7200001021995279A2F9A8091C00082608093E8
:10E73000C00080E18093C40088E18093C1000000A4
:10E74000EE24FF24870144E0A42EB12CCC24DD2448
:10E7500024C0C5010197F1F70894E11CF11C011DCB
:10E76000111D21E2E2162EE4F20620E0020720E06D
:10E77000120718F031E0C32ED12CC801B70127ECE5
:10E780003BE140E050E00F9441FE611571058105C9
:10E79000910519F485B1805885B98091C00087FD35
:10E7A00003C0C114D104A9F2A6014F5F5F4FC25E3E
:10E7B000DE4F59834883CE51D140C25EDE4F8881FF
:10E7C0009981CE51D140019711F00D9410FEC05D9A
:10E7D000DE4F19821882C053D14060E0C15DDE4F28
:10E7E0001882CF52D14088249924C35DDE4F19820C
:10E7F0001882CD52D140C05EDE4F188219821A8233
:10E800001B82C052D140CE5CDE4F188219821A8220
:10E810001B82C253D140EE24FF2487010BBFF701B6
:10E8200007911691C45CDE4F19830883CC53D14005
:10E830000D940BFEC25EDE4F28813981CE51D1404E
:10E840002130310509F52091C600C25EDE4F1982E4
:10E850001882CE51D14022C02F5F3F4F4F4F5F4FA4
:10E86000213082E138078AE7480780E0580780F0C6
:10E87000C45CDE4FE881F981CC53D140EF5FFF4F9C
:10E8800019F0EE27FF27099420E030E040E050E047
:10E890008091C00087FFE0CF2091C600C35DDE4FAE
:10E8A00048815981CD52D1404F5F5F4FC35DDE4FEC
:10E8B00059834883CD52D140213209F063C64A3092
:10E8C000510508F05FC60894811C911C53E0851621
:10E8D000910409F059C600E010E018C081E280936D
:10E8E000C6008091C00086FFFCCF8091C00080648C
:10E8F0008093C0002F5F3F4F2931310579F70F9486
:10E90000DCF10F5F1F4F0530110519F020E030E0FA
:10E91000E5CF10920A0210920B0210920C02109294
:10E920000D02109206021092070210920802109235
:10E930000902109202021092030210920402109235
:10E9400005028FEE90EE60E00F94F5F180E191EE1C
:10E9500060E00F94C2F18091C00087FFFCCF9091DE
:10E96000C600903608F09F759032B8F09093C600BC
:10E970008091C00086FFFCCF8091C00080648093AE
:10E98000C000A0E2A093C6008091C00086FFFCCF2B
:10E990008091C00080648093C000983409F4D7C18E
:10E9A0009934B8F4923409F459C1933458F490333B
:10E9B00019F1903308F4E3C59F33A1F1903409F0C5
:10E9C000DEC5BDC0953409F470C1963409F0D7C5D1
:10E9D00098C1923509F42BC2933538F49C3409F46C
:10E9E000F5C1913509F0CBC518C2963509F445C279
:10E9F000993509F0C4C567C483E792EE62E00F94CD
:10EA0000F5F110920602109207021092080210927D
:10EA1000090210920A0210920B0210920C0210923C
:10EA20000D0213C18FE792EE62E00F94F5F18FEEC5
:10EA300090EE60E00F94F5F181E291EE60E00F94CA
:10EA4000C2F187EB91EE60E00F94F5F180E391EE77
:10EA500060E00F94C2F184EE90EE60E00F94F5F167
:10EA60008FE391EE60E00F94C2F186E090E061E008
:10EA700070E00F9434F20F94DCF18DE591EE60E0DC
:10EA80000F94C2F189EC91EE60E00F94F5F18EE401
:10EA900091EE60E00F94C2F183EC91EE60E00F9490
:10EAA000F5F18CE691EE60E00F94C2F18EE10F94E7
:10EAB0000DF288E90F940DF281E00F940DF20F949E
:10EAC000DCF18BE791EE60E00F94C2F119E0E0E039
:10EAD000F0E010935700E4918E2F0F940DF20F94F5
:10EAE000DCF18AE891EE60E00F94C2F1E3E0F0E03F
:10EAF00010935700E4918E2F0F940DF20F94DCF1D8
:10EB000089E991EE60E00F94C2F1E2E0F0E0109349
:10EB10005700E4918E2F0F940DF20F94DCF188EAE8
:10EB200091EE60E00F94C2F1E1E0F0E01093570045
:10EB30001491812F0F940DF20F94DCF107CF8BE825
:10EB400092EE62E00F94F5F18BE492EE60E00F94A8
:10EB5000F5F10F94DCF100E010E019C0C8016F2D51
:10EB60000F947FFEFF2031F489E492EE60E00F9471
:10EB7000C2F10BC0F092C6008091C00086FFFCCFAE
:10EB80008091C00080648093C0000F5F1F4FC80158
:10EB900081519F41A0E0B0E0ABBFFC01F790BAE229
:10EBA000FB1621F0E2E000301E07C1F60F94DCF105
:10EBB0000F94DCF187E592EE60E00F94F5F10F948D
:10EBC000DCF1CC24DD2400E010E01EC0C8010F946D
:10EBD00077FEF82E882331F489E492EE60E00F94FA
:10EBE000C2F10BC08093C6008091C00086FFFCCFAD
:10EBF0008091C00080648093C000FE1419F00894D6
:10EC0000C11CD11C0F5F1F4FC80181519F41A0E063
:10EC1000B0E0ABBFFC01E790FAE2EF1621F022E092
:10EC20000030120799F60F94DCF10F94DCF182E6C4
:10EC300092EE60E00F94C2F1C60161E070E00F94C3
:10EC400034F20F94DCF10F94DCF110920202109276
:10EC50000302109204021092050278CE89E992EE26
:10EC600062E00F94F5F1279A2F9A16C02F9880E052
:10EC700090E0E0EDF7E03197F1F7019684369105E9
:10EC8000C1F72F9A80E090E0E0EDF7E03197F1F7DF
:10EC9000019684369105C1F78091C00087FFE6CFC9
:10ECA0008091C00087FFFCCF64C485EA92EE62E0E9
:10ECB0000F94F5F140910202509103026091040219
:10ECC0007091050281E020E10F9491F2809102029F
:10ECD00090910302A0910402B091050280509F4FD1
:10ECE000AF4FBF4F8093020290930302A0930402A0
:10ECF000B093050280509041A040B04008F426CE69
:10ED0000A4CF83EB92EE62E00F94F5F140910602FE
:10ED100050910702609108027091090280E020E1A1
:10ED20000F9491F28091060290910702A09108023F
:10ED3000B091090280509F4FAF4FBF4F80930602A2
:10ED400090930702A0930802B0930902FFCD80ECD4
:10ED500092EE62E00F94F5F183E792EE60E00F949B
:10ED6000F5F18FE792EE60E00F94F5F18BE892EE0B
:10ED700060E00F94F5F189E992EE60E00F94F5F10F
:10ED800085EA92EE60E00F94F5F183EB92EE60E09D
:10ED90000F94F5F180EC92EE60E00F94F5F187ECC2
:10EDA00092EE60E00F94F5F188ED92EE60E00F9442
:10EDB000F5F18FED92EE60E00F94F5F18AEE92EEB0
:10EDC00060E00F94F5F183E093EEBDCD87EC92EE19
:10EDD00062E00F94F5F181E40F947BF282E40F94EA
:10EDE0007BF283E40F947BF284E40F947BF285E45E
:10EDF0000F947BF286E40F947BF287E40F947BF20E
:10EE000088E40F947BF28AE40F947BF28BE40F94F6
:10EE10007BF28CE40F947BF299CD88ED92EE62E068
:10EE20000F94F5F1772473948824992409C48FED05
:10EE300092EE62E00F94F5F140910A0250910B02BC
:10EE400060910C0270910D0282E020E10F9491F22A
:10EE500080910A0290910B02A0910C02B0910D02D8
:10EE600080509F4FAF4FBF4F80930A0290930B0289
:10EE7000A0930C02B0930D0269CD8AEE92EE62E08F
:10EE80000F94F5F184EE90EE60E00F94F5F18FECC5
:10EE900091EE60E00F94F5F1662477244301CC5D98
:10EEA000DE4F19821882C452D140D401C301B695F5
:10EEB000A79597958795CA5DDE4F88839983AA8326
:10EEC000BB83C652D140CC5DDE4FA881B981C4520C
:10EED000D1401196CC5DDE4FB983A883C452D14096
:10EEE000CD0162E070E00F9434F2B0E2B093C6005E
:10EEF0008091C00086FFFCCF8091C0008064809329
:10EF0000C000EDE2E093C6008091C00086FFFCCF18
:10EF10008091C00080648093C000F0E2F093C6004E
:10EF20008091C00086FFFCCF8091C00080648093F8
:10EF3000C000CA5DDE4FE880F9800A811B81C6529D
:10EF4000D140BB27A12F902F8F2D0F940DF2CA5DBA
:10EF5000DE4F8881C652D1400F940DF2B0E2FB2EF5
:10EF6000F092C6008091C00086FFFCCF8091C00067
:10EF700080648093C0000DE30093C6008091C000C0
:10EF800086FFFCCF8091C00080648093C00010E2B7
:10EF90001093C6008091C00086FFFCCF8091C00016
:10EFA00080648093C0008BBEF3012791C65DDE4F65
:10EFB0002883CA52D140A22EBB24CC24DD2408943D
:10EFC000611C711C811C911C8BBEF3018791282E42
:10EFD0003324442455240894611C711C811C911C09
:10EFE0008BBEF3013791C55DDE4F3883CB52D140E4
:10EFF0000894611C711C811C911C8BBEF30147910C
:10F00000C45DDE4F4883CC52D140ADEFEA2EAFEF66
:10F01000FA2EAFEF0A2FAFEF1A2F6E0C7F1C801E57
:10F02000911E142D032DF22CEE24EA0CFB1C0C1D5A
:10F030001D1D0F940DF220E22093C6008091C000A8
:10F0400086FFFCCF8091C00080648093C000C65DC5
:10F05000DE4F8881CA52D1400F940DF230E23093D6
:10F06000C6008091C00086FFFCCF8091C000806404
:10F070008093C000C45DDE4F8881CC52D1400F9494
:10F080000DF240E24093C6008091C00086FFFCCFA5
:10F090008091C00080648093C000C55DDE4F888190
:10F0A000CB52D1400F940DF250E25093C6008091A4
:10F0B000C00086FFFCCF8091C00080648093C000B8
:10F0C0008FEFE8168FEFF80680E0080780E018075A
:10F0D00031F484E092EE60E00F94C2F1DFC0D80119
:10F0E000C7018070907CA070B0708050904CA040A0
:10F0F000B040D1F52FEF3FE340E050E0E222F322B1
:10F1000004231523CA5DDE4FA880B980CA80DB8046
:10F11000C652D140AE0CBF1CC01ED11EAA0CBB1CD7
:10F12000CC1CDD1C8EE092EE60E00F94C2F1BB2798
:10F13000A12F902F8F2D0F940DF28E2D0F940DF285
:10F1400030E23093C6008091C00086FFFCCF8091F2
:10F15000C00080648093C0004EE34093C60080915D
:10F16000C00086FFFCCF87C08EE09EEFA0E0B0E03D
:10F17000E822F9220A231B239CE0E91694E9F90608
:10F1800090E0090790E0190709F088C0C45DDE4FE0
:10F19000A881CC52D140EA2EFF2400E010E0102FCD
:10F1A0000F2DFE2CEE24C55DDE4FB881CB52D14031
:10F1B000EB0EF11C011D111DD601C501817090706F
:10F1C000A070B070DC0199278827E80EF91E0A1F8D
:10F1D0001B1F20EF30E040E050E0A222B322C42207
:10F1E000D52241E1AA0CBB1CCC1CDD1C4A95D1F7F1
:10F1F000EA0CFB1C0C1D1D1D81E090E0A0E0B0E0BE
:10F20000282239224A225B2235E1220C331C441C7D
:10F21000551C3A95D1F7E20CF31C041D151D57013E
:10F220006801AA0CBB1CCC1CDD1C85E192EE60E0E1
:10F230000F94C2F1C801AA27BB270F940DF2BB2778
:10F24000A12F902F8F2D0F940DF28E2D0F940DF274
:10F2500090E29093C6008091C00086FFFCCF809121
:10F26000C00080648093C000AEE3A093C60080918C
:10F27000C00086FFFCCF8091C00080648093C000F6
:10F28000C601AA27BB270F940DF2BB27AD2D9C2DDD
:10F290008B2D0F940DF28A2D0F940DF20F94DCF14B
:10F2A000CC5DDE4FE881F981C452D140F99709F471
:10F2B0004DCBF4E0EF2EF12C012D112D6E0C7F1CA7
:10F2C000801E911EF2CD83E093EE62E00F94F5F183
:10F2D0008AE192EE60E00F94C2F18091C00087FF56
:10F2E000FCCF1091C6001F751093C6008091C0001E
:10F2F00086FFFCCF8091C00080648093C0000F9493
:10F30000DCF1812F81548A3108F036C1163409F4BA
:10F3100095C0173490F4133409F44EC0143430F40B
:10F320001134F1F0123409F01DC130C0143409F465
:10F3300059C0153409F016C16BC01A3409F4C4C0A1
:10F340001B3438F4173409F48FC0183409F00AC19B
:10F35000A1C01B3409F4D2C01C3409F003C1E8C0B9
:10F360008FEF81B90DC082B1809582B980E090E0C5
:10F37000E0EDF7E03197F1F70196883C9105C1F790
:10F380008091C00087FFEFCF12B8EFC08FEF84B934
:10F390000DC085B1809585B980E090E0E0EDF7E0A3
:10F3A0003197F1F70196883C9105C1F78091C00033
:10F3B00087FFEFCF15B8D9C08FEF87B90DC088B1DF
:10F3C000809588B980E090E0E0EDF7E03197F1F7C3
:10F3D0000196883C9105C1F78091C00087FFEFCF6F
:10F3E00018B8C3C08FEF8AB90DC08BB180958BB9A7
:10F3F00080E090E0E0EDF7E03197F1F70196883C8E
:10F400009105C1F78091C00087FFEFCF1BB8ADC059
:10F410008FEF8DB90DC08EB180958EB980E090E0F0
:10F42000E0EDF7E03197F1F70196883C9105C1F7DF
:10F430008091C00087FFEFCF1EB897C08FEF80BBD1
:10F440000DC081B3809581BB80E090E0E0EDF7E0F6
:10F450003197F1F70196883C9105C1F78091C00082
:10F4600087FFEFCF11BA81C08FEF83BB0DC084B38C
:10F47000809584BB80E090E0E0EDF7E03197F1F714
:10F480000196883C9105C1F78091C00087FFEFCFBE
:10F4900014BA6BC08FEF809301010FC080910201FD
:10F4A00080958093020180E090E0E0EDF7E03197F5
:10F4B000F1F70196883C9105C1F78091C00087FF64
:10F4C000EDCF1092020151C08FEF809304010FC065
:10F4D0008091050180958093050180E090E0E0ED4A
:10F4E000F7E03197F1F70196883C9105C1F78091DB
:10F4F000C00087FFEDCF1092050137C08FEF8093DA
:10F5000007010FC08091080180958093080180E079
:10F5100090E0E0EDF7E03197F1F70196883C910536
:10F52000C1F78091C00087FFEDCF109208011DC088
:10F530008FEF80930A010FC080910B01809580931B
:10F540000B0180E090E0E0EDF7E03197F1F70196F4
:10F55000883C9105C1F78091C00087FFEDCF1092E4
:10F560000B0103C085E292EEEEC98091C00087FFD7
:10F57000FCCF8091C600EAC988E392EEE4C98CE131
:10F5800091EEE1C988249924933011F1943028F444
:10F59000913089F09230B8F408C0953061F195301F
:10F5A000F0F0963009F048C043C02B3109F042C951
:10F5B00091E06BE13FC96227C15DDE4F2883CF52E6
:10F5C000D14092E037C9B22FA0E0622793E032C960
:10F5D000822F90E0A82BB92B622794E02BC92E3004
:10F5E00009F039C3622795E0C05DDE4F19821882A9
:10F5F000C053D1401FC9E1E0F0E0EC0FFD1FC05D3A
:10F60000DE4F08811981C053D140E00FF11F2083E4
:10F610000F5F1F4FC05DDE4F19830883C053D14079
:10F6200062270A171B0709F005C9D80196E002C92D
:10F63000261709F010C303C0973009F0FBC87724E0
:10F640009981933109F412C19431C8F4963009F4C8
:10F65000D8C0973050F4923009F406C1933009F4C1
:10F660006DC0913009F059C253C0913109F477C08F
:10F67000923108F0BBC0903109F04FC2F5C098310B
:10F6800009F487C0993150F4953109F4EFC09531F0
:10F6900008F4C6C1963109F040C2C2C19A3109F4DA
:10F6A0006CC09A3108F491C09B3109F45BC09D3164
:10F6B00009F033C29D81903359F48F81882311F46E
:10F6C0009EE11CC0813011F091E018C098E916C08D
:10F6D000892F807591F0903539F4E0E0F0E089E011
:10F6E0008093570094910AC0983539F4E3E0F0E034
:10F6F00089E080935700949101C090E01A821B82A8
:10F700008D818C831D829E831F8227E030E009C299
:10F710001A8288E08B8381E48C8386E58D8382E581
:10F720008E8389E48F8383E5888780E589878FE5E9
:10F730008A8782E38B872BE030E0F3C18A818139AD
:10F7400041F0823941F0803911F48FE005C080E04A
:10F7500003C082E001C08AE01A828B8344C0772410
:10F76000739482C08D81882311F48EE12CC0813086
:10F7700011F081E028C088E926C01A82E1E0F0E0BB
:10F7800089E08093570084918B831C8224E030E0D1
:10F79000C8C18B81803589F48C81883039F4E2E0EE
:10F7A000F0E089E08093570084910DC0E0E0F0E044
:10F7B00089E080935700849106C0E3E0F0E089E09F
:10F7C0008093570084911A82DFCF8D81836C99E0FA
:10F7D000E1E0F0E0082E90935700E89507B600FCB2
:10F7E000FDCF1A821B8223E030E09BC180EC8A832C
:10F7F000CE5CDE4F188219821A821B82C253D1401E
:10F800008EC18A8190E0A0E0B0E0582F44273327D2
:10F8100022278B8190E0A0E0B0E0DC0199278827C7
:10F82000282B392B4A2B5B2B8D8190E0A0E0B0E098
:10F83000282B392B4A2B5B2B8C8190E0A0E0B0E089
:10F84000BA2FA92F982F8827282B392B4A2B5B2BCF
:10F85000220F331F441F551FC05EDE4F288339839C
:10F860004A835B83C052D1401A8259C13A81C95C34
:10F87000DE4F3883C753D140CA5CDE4F1882C6536F
:10F88000D1408B81C82EDD24CA5CDE4F488159816E
:10F89000C653D140C42AD52A933109F082C0CE5C28
:10F8A000DE4F88819981AA81BB81C253D1408050AB
:10F8B000904CA340B04030F583E0CE5CDE4FE88052
:10F8C000F9800A811B81C253D140F70100935B008C
:10F8D00080935700E89507B600FCFDCFCE5CDE4F65
:10F8E000088119812A813B81C253D14000501F4FAA
:10F8F0002F4F3F4FCE5CDE4F088319832A833B8313
:10F90000C253D140C05EDE4F488159816A817B81FC
:10F91000C052D140DE011B9631E08C9111962C91A2
:10F9200011971296C75CDE4F2883C953D140C85C3B
:10F93000DE4F1882C853D14090E0C85CDE4FE881AA
:10F94000F981C853D1408E2B9F2B0C01FA01609393
:10F950005B0030935700E89511244E5F5F4F6F4F67
:10F960007F4F0EEFE02E0FEFF02ECE0CDF1CC114F8
:10F97000D10499F685E0C05EDE4F088119812A81A5
:10F980003B81C052D140F80120935B008093570027
:10F99000E89507B600FCFDCF81E180935700E8951C
:10F9A00035C0C05EDE4F88819981AA81BB81C0527B
:10F9B000D140B695A795979587957C018601ABE0D8
:10F9C000AA2EB12CAC0EBD1E0BC0D5016D915D01F0
:10F9D000C7010F947FFE0894E11CF11C01501040F8
:10F9E0000115110591F7A60160E070E0440F551F65
:10F9F000661F771FC05EDE4FE880F9800A811B8199
:10FA0000C052D1404E0D5F1D601F711F1A82C05E33
:10FA1000DE4F488359836A837B83C052D1407FC0C5
:10FA2000FA80C55CDE4FF882CB53D140C65CDE4F16
:10FA30001882CA53D1408B81C82EDD24C65CDE4FAC
:10FA400008811981CA53D140C02AD12A1A828981DA
:10FA5000BE016D5F7F4F843121F59601C05EDE4FA0
:10FA6000E880F9800A811B81C052D1400BBFF701A9
:10FA700087919691DB018C9311969C936E5F7F4FDB
:10FA8000D801C7010296A11DB11DC05EDE4F88835B
:10FA90009983AA83BB83C052D14022503040F1F6F3
:10FAA00036C0C05EDE4F288139814A815B81C052F9
:10FAB000D1400894C108D108760100E010E0089414
:10FAC000C11CD11C0894E11CF11C011D111DE20E8A
:10FAD000F31E041F151F21BDBB27A52F942F832FB5
:10FAE00082BD2F5F3F4F4F4F5F4FF89A80B5DB01CC
:10FAF0008D93BD012E153F054007510761F7C05E8C
:10FB0000DE4F288339834A835B83C052D1409601FC
:10FB10002D5F3F4FFB01108204C080EC8A8322E0FE
:10FB200030E08BE18093C6008091C00086FFFCCF5F
:10FB30008091C00080648093C000C15DDE4FF88179
:10FB4000CF52D140F093C6008091C00086FFFCCF19
:10FB50008091C00080648093C000432F3093C60022
:10FB60008091C00086FFFCCF8091C00080648093AC
:10FB7000C000922F2093C6008091C00086FFFCCF6A
:10FB80008091C00080648093C0008EE08093C600A6
:10FB90008091C00086FFFCCF8091C000806480937C
:10FBA000C00065E1C15DDE4FE880CF52D1406E25D7
:10FBB00069276427FE01319610C090819093C6009A
:10FBC0008091C00086FFFCCF31968091C000806498
:10FBD0008093C0006927215030402115310569F715
:10FBE0006093C6008091C00086FFFCCF8091C0006A
:10FBF00080648093C00085B1805885B9772081F4F6
:10FC0000C15DDE4F0881CF52D1400F5FC15DDE4F35
:10FC10000883CF52D14090E0A0E0B0E00D941AF4F8
:10FC200027982F9880E090E020ED37E0F901319798
:10FC3000F1F7019684369105C9F700008091C00064
:10FC40008D7F8093C00081E180935700E895EE2777
:10FC5000FF270994FFCF90E00D941AF497FB092E2B
:10FC600007260AD077FD04D02ED006D000201AF443
:10FC7000709561957F4F0895F6F7909581959F4F08
:10FC80000895A1E21A2EAA1BBB1BFD010DC0AA1FDD
:10FC9000BB1FEE1FFF1FA217B307E407F50720F0F5
:10FCA000A21BB30BE40BF50B661F771F881F991F70
:10FCB0001A9469F760957095809590959B01AC01B9
:10FCC000BD01CF010895AA1BBB1B51E107C0AA1FAC
:10FCD000BB1FA617B70710F0A61BB70B881F991FED
:10FCE0005A95A9F780959095BC01CD010895F99991
:10FCF000FECF92BD81BDF89A992780B50895262F31
:10FD0000F999FECF1FBA92BD81BD20BD0FB6F89400
:0EFD1000FA9AF99A0FBE01960895F894FFCF63
:00000001FF
